{
  "contractName": "DeviceContract",
  "abi": [
    {
      "constant": true,
      "inputs": [
        {
          "name": "",
          "type": "uint256"
        }
      ],
      "name": "devices",
      "outputs": [
        {
          "name": "name",
          "type": "string"
        },
        {
          "name": "totalUsedHours",
          "type": "uint256"
        },
        {
          "name": "hoursSinceLastInspection",
          "type": "uint256"
        },
        {
          "name": "active",
          "type": "bool"
        },
        {
          "name": "owner",
          "type": "address"
        }
      ],
      "payable": false,
      "stateMutability": "view",
      "type": "function"
    },
    {
      "constant": false,
      "inputs": [
        {
          "name": "deviceId",
          "type": "uint256"
        },
        {
          "name": "newOwner",
          "type": "address"
        }
      ],
      "name": "transferOwnership",
      "outputs": [],
      "payable": false,
      "stateMutability": "nonpayable",
      "type": "function"
    },
    {
      "constant": false,
      "inputs": [
        {
          "name": "deviceId",
          "type": "uint256"
        }
      ],
      "name": "resetInspectionHoursOfDevice",
      "outputs": [],
      "payable": false,
      "stateMutability": "nonpayable",
      "type": "function"
    },
    {
      "constant": false,
      "inputs": [
        {
          "name": "deviceId",
          "type": "uint256"
        }
      ],
      "name": "getCurrentOwner",
      "outputs": [
        {
          "name": "",
          "type": "address"
        }
      ],
      "payable": false,
      "stateMutability": "nonpayable",
      "type": "function"
    },
    {
      "constant": false,
      "inputs": [
        {
          "name": "deviceId",
          "type": "uint256"
        },
        {
          "name": "deviceName",
          "type": "string"
        }
      ],
      "name": "addDevice",
      "outputs": [],
      "payable": false,
      "stateMutability": "nonpayable",
      "type": "function"
    },
    {
      "constant": false,
      "inputs": [
        {
          "name": "deviceId",
          "type": "uint256"
        },
        {
          "name": "hoursUsed",
          "type": "uint256"
        }
      ],
      "name": "bookUsedHours",
      "outputs": [
        {
          "name": "newTotalUsedHours",
          "type": "uint256"
        }
      ],
      "payable": false,
      "stateMutability": "nonpayable",
      "type": "function"
    },
    {
      "constant": false,
      "inputs": [
        {
          "name": "deviceId",
          "type": "uint256"
        }
      ],
      "name": "deactivateDeviceById",
      "outputs": [],
      "payable": false,
      "stateMutability": "nonpayable",
      "type": "function"
    }
  ],
  "bytecode": "0x6060604052341561000f57600080fd5b6106f98061001e6000396000f300606060405260043610610083576000357c0100000000000000000000000000000000000000000000000000000000900463ffffffff16806310ff8e311461008857806329507f731461018d5780633a989ace146101cf5780637ace341b146101f2578063a373761814610255578063dbdeadb6146102bb578063e2587187146102fb575b600080fd5b341561009357600080fd5b6100a9600480803590602001909190505061031e565b6040518080602001868152602001858152602001841515151581526020018373ffffffffffffffffffffffffffffffffffffffff1673ffffffffffffffffffffffffffffffffffffffff16815260200182810382528781815460018160011615610100020316600290048152602001915080546001816001161561010002031660029004801561017a5780601f1061014f5761010080835404028352916020019161017a565b820191906000526020600020905b81548152906001019060200180831161015d57829003601f168201915b5050965050505050505060405180910390f35b341561019857600080fd5b6101cd600480803590602001909190803573ffffffffffffffffffffffffffffffffffffffff16906020019091905050610380565b005b34156101da57600080fd5b6101f06004808035906020019091905050610463565b005b34156101fd57600080fd5b6102136004808035906020019091905050610481565b604051808273ffffffffffffffffffffffffffffffffffffffff1673ffffffffffffffffffffffffffffffffffffffff16815260200191505060405180910390f35b341561026057600080fd5b6102b9600480803590602001909190803590602001908201803590602001908080601f016020809104026020016040519081016040528093929190818152602001838380828437820191505050505050919050506104c0565b005b34156102c657600080fd5b6102e560048080359060200190919080359060200190919050506105b4565b6040518082815260200191505060405180910390f35b341561030657600080fd5b61031c60048080359060200190919050506105f7565b005b600060205280600052604060002060009150905080600001908060010154908060020154908060030160009054906101000a900460ff16908060030160019054906101000a900473ffffffffffffffffffffffffffffffffffffffff16905085565b3373ffffffffffffffffffffffffffffffffffffffff1660008084815260200190815260200160002060030160019054906101000a900473ffffffffffffffffffffffffffffffffffffffff1673ffffffffffffffffffffffffffffffffffffffff16141561045f5760008173ffffffffffffffffffffffffffffffffffffffff1614151561045e578060008084815260200190815260200160002060030160016101000a81548173ffffffffffffffffffffffffffffffffffffffff021916908373ffffffffffffffffffffffffffffffffffffffff1602179055505b5b5050565b60008060008381526020019081526020016000206002018190555050565b600080600083815260200190815260200160002060030160019054906101000a900473ffffffffffffffffffffffffffffffffffffffff169050919050565b60a06040519081016040528082815260200160008152602001600081526020016001151581526020013373ffffffffffffffffffffffffffffffffffffffff168152506000808481526020019081526020016000206000820151816000019080519060200190610531929190610628565b50602082015181600101556040820151816002015560608201518160030160006101000a81548160ff02191690831515021790555060808201518160030160016101000a81548173ffffffffffffffffffffffffffffffffffffffff021916908373ffffffffffffffffffffffffffffffffffffffff1602179055509050505050565b6000806000808581526020019081526020016000209050828160010154018160010181905550828160020154018160020181905550806001015491505092915050565b600080600083815260200190815260200160002060030160006101000a81548160ff02191690831515021790555050565b828054600181600116156101000203166002900490600052602060002090601f016020900481019282601f1061066957805160ff1916838001178555610697565b82800160010185558215610697579182015b8281111561069657825182559160200191906001019061067b565b5b5090506106a491906106a8565b5090565b6106ca91905b808211156106c65760008160009055506001016106ae565b5090565b905600a165627a7a72305820f520b3356fafca77e14d87e0a6c2c1d1620c730a427ff364d12e3d4906ccf9820029",
  "source": "pragma solidity ^0.4.17;\r\n\r\n/*\r\n* Vertrag fuer eine Menge an Geraeten\r\n*/\r\ncontract DeviceContract {\r\n\r\n    //Entitaet: Unsere Geraet\r\n    struct Device {\r\n        string name;\r\n        uint totalUsedHours;\r\n        uint hoursSinceLastInspection;\r\n        bool active;\r\n        address owner;\r\n\r\n    }\r\n\r\n    mapping (uint => Device) public devices;\r\n\r\n    //erzeugt ein neues Geraet, ID muss eindeutig sein und darf vorher nicht existieren\r\n    function addDevice(uint deviceId, string deviceName) public {\r\n        devices[deviceId] = Device(deviceName,0,0,true,msg.sender);\r\n    }\r\n\r\n    function bookUsedHours(uint deviceId, uint hoursUsed) public returns (uint newTotalUsedHours) {\r\n        Device storage d = devices[deviceId];\r\n        d.totalUsedHours = d.totalUsedHours + hoursUsed;\r\n        d.hoursSinceLastInspection = d.hoursSinceLastInspection + hoursUsed;\r\n        //devices[deviceId] = d;\r\n        return d.totalUsedHours;\r\n    }\r\n\r\n    function resetInspectionHoursOfDevice(uint deviceId) public {\r\n        devices[deviceId].hoursSinceLastInspection = 0;\r\n    }\r\n\r\n    /*function getTotalUsedHoursById(uint deviceId) public returns (uint totalUsedHours) {\r\n        return devices[deviceId].totalUsedHours; \r\n    }*/\r\n\r\n    function deactivateDeviceById(uint deviceId) public {\r\n        devices[deviceId].active = false;\r\n    }\r\n\r\n    //uebertraegt ownership an neue adresse, sender muss aktueller owner sein\r\n    function transferOwnership(uint deviceId, address newOwner) public {\r\n        if (devices[deviceId].owner == msg.sender) {\r\n            if (newOwner != 0x0) {\r\n              devices[deviceId].owner = newOwner;  \r\n            }\r\n        }\r\n    }\r\n\r\n    function getCurrentOwner(uint deviceId) public returns(address) {\r\n        return devices[deviceId].owner;\r\n    }\r\n}\r\n",
  "sourcePath": "D:\\arbeit\\blockchain\\BAHackVision48\\contracts\\DeviceContract.sol",
  "compiler": {
    "name": "solc",
    "version": "0.4.18+commit.9cf6e910.Emscripten.clang"
  },
  "schemaVersion": "1.0.1",
  "updatedAt": "2017-11-26T10:29:18.460Z"
}