{
  "contractName": "Fridge",
  "abi": [
    {
      "constant": false,
      "inputs": [],
      "name": "giveColaToThomas",
      "outputs": [
        {
          "name": "newCola",
          "type": "uint256"
        }
      ],
      "payable": false,
      "stateMutability": "nonpayable",
      "type": "function"
    },
    {
      "constant": false,
      "inputs": [],
      "name": "getStock",
      "outputs": [
        {
          "name": "stock",
          "type": "uint256"
        }
      ],
      "payable": false,
      "stateMutability": "nonpayable",
      "type": "function"
    },
    {
      "constant": false,
      "inputs": [
        {
          "name": "add",
          "type": "uint256"
        }
      ],
      "name": "fillCola",
      "outputs": [
        {
          "name": "newStock",
          "type": "uint256"
        }
      ],
      "payable": false,
      "stateMutability": "nonpayable",
      "type": "function"
    },
    {
      "inputs": [],
      "payable": false,
      "stateMutability": "nonpayable",
      "type": "constructor"
    }
  ],
  "bytecode": "0x6060604052341561000f57600080fd5b6064600081905550610147806100266000396000f300606060405260043610610057576000357c0100000000000000000000000000000000000000000000000000000000900463ffffffff16806318e4636c1461005c578063e38ffcd814610085578063e9ab4c4f146100ae575b600080fd5b341561006757600080fd5b61006f6100e5565b6040518082815260200191505060405180910390f35b341561009057600080fd5b6100986100fb565b6040518082815260200191505060405180910390f35b34156100b957600080fd5b6100cf6004808035906020019091905050610104565b6040518082815260200191505060405180910390f35b6000600160005403600081905550600054905090565b60008054905090565b6000816000540160008190555060005490509190505600a165627a7a72305820deb283ca0e5b9a0c925576631fc30de2af4be12e96860d6872bb06229f1dbcb00029",
  "source": "pragma solidity ^0.4.17;\r\n\r\ncontract Fridge {\r\n\r\n    uint cola;\r\n\r\n    function Fridge() public {\r\n        cola = 100;\r\n    }\r\n\r\n    function fillCola(uint add) public returns (uint newStock) {\r\n        cola = cola + add;\r\n        return cola;\r\n    }\r\n\r\n    function giveColaToThomas() public returns (uint newCola) {\r\n        cola = cola - 1;\r\n        return cola;\r\n    }\r\n\r\n    function getStock() public returns (uint stock) {\r\n        return cola;\r\n    }\r\n\r\n\r\n}",
  "sourcePath": "D:\\arbeit\\blockchain\\BAHackVision48\\contracts\\Fridge.sol",
  "compiler": {
    "name": "solc",
    "version": "0.4.18+commit.9cf6e910.Emscripten.clang"
  },
  "schemaVersion": "1.0.1",
  "updatedAt": "2017-11-26T10:32:39.958Z"
}