{
  "contractName": "MaintenanceContract",
  "abi": [
    {
      "constant": true,
      "inputs": [
        {
          "name": "",
          "type": "uint256"
        }
      ],
      "name": "devices",
      "outputs": [
        {
          "name": "name",
          "type": "string"
        },
        {
          "name": "totalUsedHours",
          "type": "uint256"
        },
        {
          "name": "hoursSinceLastInspection",
          "type": "uint256"
        },
        {
          "name": "active",
          "type": "bool"
        }
      ],
      "payable": false,
      "stateMutability": "view",
      "type": "function"
    },
    {
      "constant": false,
      "inputs": [
        {
          "name": "deviceId",
          "type": "uint256"
        }
      ],
      "name": "resetInspectionHoursOfDevice",
      "outputs": [],
      "payable": false,
      "stateMutability": "nonpayable",
      "type": "function"
    },
    {
      "constant": false,
      "inputs": [
        {
          "name": "deviceId",
          "type": "uint256"
        }
      ],
      "name": "getHoursSinceLastInspectionById",
      "outputs": [
        {
          "name": "",
          "type": "uint256"
        }
      ],
      "payable": false,
      "stateMutability": "nonpayable",
      "type": "function"
    },
    {
      "constant": false,
      "inputs": [
        {
          "name": "deviceId",
          "type": "uint256"
        },
        {
          "name": "deviceName",
          "type": "string"
        }
      ],
      "name": "addDevice",
      "outputs": [],
      "payable": false,
      "stateMutability": "nonpayable",
      "type": "function"
    },
    {
      "constant": false,
      "inputs": [
        {
          "name": "deviceId",
          "type": "uint256"
        },
        {
          "name": "hoursUsed",
          "type": "uint256"
        }
      ],
      "name": "bookUsedHours",
      "outputs": [
        {
          "name": "",
          "type": "uint256"
        }
      ],
      "payable": false,
      "stateMutability": "nonpayable",
      "type": "function"
    },
    {
      "constant": false,
      "inputs": [
        {
          "name": "deviceId",
          "type": "uint256"
        }
      ],
      "name": "deactivateDeviceById",
      "outputs": [],
      "payable": false,
      "stateMutability": "nonpayable",
      "type": "function"
    }
  ],
  "bytecode": "0x6060604052341561000f57600080fd5b6104c68061001e6000396000f300606060405260043610610078576000357c0100000000000000000000000000000000000000000000000000000000900463ffffffff16806310ff8e311461007d5780633a989ace1461014f5780639ef70c1114610172578063a3737618146101a9578063dbdeadb61461020f578063e25871871461024f575b600080fd5b341561008857600080fd5b61009e6004808035906020019091905050610272565b60405180806020018581526020018481526020018315151515815260200182810382528681815460018160011615610100020316600290048152602001915080546001816001161561010002031660029004801561013d5780601f106101125761010080835404028352916020019161013d565b820191906000526020600020905b81548152906001019060200180831161012057829003601f168201915b50509550505050505060405180910390f35b341561015a57600080fd5b61017060048080359060200190919050506102ae565b005b341561017d57600080fd5b61019360048080359060200190919050506102cc565b6040518082815260200191505060405180910390f35b34156101b457600080fd5b61020d600480803590602001909190803590602001908201803590602001908080601f016020809104026020016040519081016040528093929190818152602001838380828437820191505050505050919050506102f0565b005b341561021a57600080fd5b6102396004808035906020019091908035906020019091905050610381565b6040518082815260200191505060405180910390f35b341561025a57600080fd5b61027060048080359060200190919050506103c4565b005b600060205280600052604060002060009150905080600001908060010154908060020154908060030160009054906101000a900460ff16905084565b60008060008381526020019081526020016000206002018190555050565b60008060008084815260200190815260200160002060020154905080915050919050565b60806040519081016040528082815260200160008152602001600081526020016001151581525060008084815260200190815260200160002060008201518160000190805190602001906103459291906103f5565b50602082015181600101556040820151816002015560608201518160030160006101000a81548160ff0219169083151502179055509050505050565b6000806000808581526020019081526020016000209050828160010154018160010181905550828160020154018160020181905550806001015491505092915050565b600080600083815260200190815260200160002060030160006101000a81548160ff02191690831515021790555050565b828054600181600116156101000203166002900490600052602060002090601f016020900481019282601f1061043657805160ff1916838001178555610464565b82800160010185558215610464579182015b82811115610463578251825591602001919060010190610448565b5b5090506104719190610475565b5090565b61049791905b8082111561049357600081600090555060010161047b565b5090565b905600a165627a7a72305820fcbd53aff75c972a574e1a508ee6dc63937bf16625807dfb713d5092c1f276580029",
  "source": "pragma solidity ^0.4.17;\r\n\r\n/*\r\n* Vertrag fuer eine Menge an Geraeten\r\n*/\r\ncontract MaintenanceContract {\r\n\r\n    //Entitaet: Unsere Geraet\r\n    struct Device {\r\n        string name;\r\n        uint totalUsedHours;\r\n        uint hoursSinceLastInspection;\r\n        bool active;\r\n        //address owner;\r\n    }\r\n\r\n    mapping (uint => Device) public devices;\r\n\r\n    //erzeugt ein neues Geraet, ID muss eindeutig sein und darf vorher nicht existieren\r\n    function addDevice(uint deviceId, string deviceName) public {\r\n        devices[deviceId] = Device(deviceName,0,0,true);\r\n    }\r\n\r\n    function bookUsedHours(uint deviceId, uint hoursUsed) public returns (uint) {\r\n        Device storage d = devices[deviceId];\r\n        d.totalUsedHours = d.totalUsedHours + hoursUsed;\r\n        d.hoursSinceLastInspection = d.hoursSinceLastInspection + hoursUsed;\r\n        //devices[deviceId] = d;\r\n        return d.totalUsedHours;\r\n    }\r\n\r\n    function getHoursSinceLastInspectionById(uint deviceId) public returns (uint) {\r\n        uint  hrs = devices[deviceId].hoursSinceLastInspection;\r\n        return hrs;\r\n    }\r\n\r\n    function resetInspectionHoursOfDevice(uint deviceId) public {\r\n        devices[deviceId].hoursSinceLastInspection = 0;\r\n    }\r\n\r\n    /*function getDeviceById(uint deviceId) public returns(Device) {\r\n        return devices[deviceId];\r\n    }*/\r\n\r\n    /*function getTotalUsedHoursById(uint deviceId) public returns (uint totalUsedHours) {\r\n        return devices[deviceId].totalUsedHours; \r\n    }*/\r\n\r\n    function deactivateDeviceById(uint deviceId) public {\r\n        devices[deviceId].active = false;\r\n    }\r\n\r\n    //uebertraegt ownership an neue adresse, sender muss aktueller owner sein\r\n    /*function transferOwnership(uint deviceId, address newOwner) public {\r\n        if (devices[deviceId].owner == msg.sender) {\r\n            if (newOwner != 0x0) {\r\n              devices[deviceId].owner = newOwner;  \r\n            }\r\n        }\r\n    }\r\n\r\n    function getCurrentOwner(uint deviceId) public returns(address) {\r\n        return devices[deviceId].owner;\r\n    }*/\r\n}\r\n",
  "sourcePath": "D:\\arbeit\\blockchain\\BAHackVision48\\contracts\\MaintenanceContract.sol",
  "compiler": {
    "name": "solc",
    "version": "0.4.18+commit.9cf6e910.Emscripten.clang"
  },
  "schemaVersion": "1.0.1",
  "updatedAt": "2017-11-26T10:33:27.695Z"
}