{
  "contractName": "MaintenanceContract",
  "abi": [
    {
      "constant": true,
      "inputs": [
        {
          "name": "",
          "type": "uint256"
        },
        {
          "name": "deviceName",
          "type": "string"
        }
      ],
      "name": "devices",
      "outputs": [
        {
          "name": "name",
          "type": "string"
        },
        {
          "name": "totalUsedHours",
          "type": "uint256"
        },
        {
          "name": "hoursSinceLastInspection",
          "type": "uint256"
        },
        {
          "name": "active",
          "type": "bool"
        }
      ],
      "payable": false,
      "stateMutability": "view",
      "type": "function"
    },
    {
      "constant": false,
      "inputs": [
        {
          "name": "deviceId",
          "type": "uint256"
        },
        {
          "name": "deviceName",
          "type": "string"
        }
      ],
      "name": "resetInspectionHoursOfDevice",
      "outputs": [
        {
          "name": "myDevice",
          "type": "tuple",
          "components": [
            {
              "name": "name",
              "type": "string"
            },
            {
              "name": "totalUsedHours",
              "type": "uint256"
            },
            {
              "name": "hoursSinceLastInspection",
              "type": "uint256"
            },
            {
              "name": "active",
              "type": "bool"
            }
          ]
        }
      ],
      "payable": false,
      "stateMutability": "nonpayable",
      "type": "function"
    },
    {
      "constant": false,
      "inputs": [
        {
          "name": "deviceId",
          "type": "uint256"
        },
        {
          "name": "deviceName",
          "type": "string"
        }
      ],
      "name": "addDevice",
      "outputs": [
        {
          "name": "newTotalUsedHours",
          "type": "uint256"
        }
      ],
      "payable": false,
      "stateMutability": "nonpayable",
      "type": "function"
    },
    {
      "constant": false,
      "inputs": [
        {
          "name": "deviceId",
          "type": "uint256"
        },
        {
          "name": "hoursUsed",
          "type": "uint256"
        }
      ],
      "name": "bookUsedHours",
      "outputs": [
        {
          "name": "newTotalUsedHours",
          "type": "uint256"
        }
      ],
      "payable": false,
      "stateMutability": "nonpayable",
      "type": "function"
    },
    {
      "constant": false,
      "inputs": [
        {
          "name": "deviceId",
          "type": "uint256"
        }
      ],
      "name": "deactivateDeviceById",
      "outputs": [
        {
          "name": "totalUsedHours",
          "type": "uint256"
        }
      ],
      "payable": false,
      "stateMutability": "nonpayable",
      "type": "function"
    }
  ],
  "bytecode": "0x6060604052341561000f57600080fd5b6104608061001e6000396000f30060606040526004361061006d576000357c0100000000000000000000000000000000000000000000000000000000900463ffffffff16806310ff8e31146100725780633a989ace14610144578063a373761814610167578063dbdeadb6146101cd578063e25871871461020d575b600080fd5b341561007d57600080fd5b6100936004808035906020019091905050610230565b6040518080602001858152602001848152602001831515151581526020018281038252868181546001816001161561010002031660029004815260200191508054600181600116156101000203166002900480156101325780601f1061010757610100808354040283529160200191610132565b820191906000526020600020905b81548152906001019060200180831161011557829003601f168201915b50509550505050505060405180910390f35b341561014f57600080fd5b610165600480803590602001909190505061026c565b005b341561017257600080fd5b6101cb600480803590602001909190803590602001908201803590602001908080601f0160208091040260200160405190810160405280939291908181526020018383808284378201915050505050509190505061028a565b005b34156101d857600080fd5b6101f7600480803590602001909190803590602001909190505061031b565b6040518082815260200191505060405180910390f35b341561021857600080fd5b61022e600480803590602001909190505061035e565b005b600060205280600052604060002060009150905080600001908060010154908060020154908060030160009054906101000a900460ff16905084565b60008060008381526020019081526020016000206002018190555050565b60806040519081016040528082815260200160008152602001600081526020016001151581525060008084815260200190815260200160002060008201518160000190805190602001906102df92919061038f565b50602082015181600101556040820151816002015560608201518160030160006101000a81548160ff0219169083151502179055509050505050565b6000806000808581526020019081526020016000209050828160010154018160010181905550828160020154018160020181905550806001015491505092915050565b600080600083815260200190815260200160002060030160006101000a81548160ff02191690831515021790555050565b828054600181600116156101000203166002900490600052602060002090601f016020900481019282601f106103d057805160ff19168380011785556103fe565b828001600101855582156103fe579182015b828111156103fd5782518255916020019190600101906103e2565b5b50905061040b919061040f565b5090565b61043191905b8082111561042d576000816000905550600101610415565b5090565b905600a165627a7a7230582079844a096bd18518fa89a08d3b8b9cf654ab38a7f74a20a8e886e5af46992b330029",
  "source": "pragma solidity ^0.4.17;\r\n\r\n/*\r\n* Vertrag fuer eine Menge an Geraeten\r\n*/\r\ncontract MaintenanceContract {\r\n\r\n    //Entitaet: Unsere Geraet\r\n    struct Device {\r\n        string name;\r\n        uint totalUsedHours;\r\n        uint hoursSinceLastInspection;\r\n        bool active;\r\n    }\r\n\r\n    mapping (uint => Device) public devices;\r\n\r\n    //erzeugt ein neues Geraet, ID muss eindeutig sein und darf vorher nicht existieren\r\n    function addDevice(uint deviceId, string deviceName) public {\r\n        devices[deviceId] = Device(deviceName,0,0,true);\r\n    }\r\n\r\n    function bookUsedHours(uint deviceId, uint hoursUsed) public returns (uint newTotalUsedHours) {\r\n        Device d = devices[deviceId];\r\n        d.totalUsedHours = d.totalUsedHours + hoursUsed;\r\n        d.hoursSinceLastInspection = d.hoursSinceLastInspection + hoursUsed;\r\n        //devices[deviceId] = d;\r\n        return d.totalUsedHours;\r\n    }\r\n\r\n    function resetInspectionHoursOfDevice(uint deviceId) public {\r\n        devices[deviceId].hoursSinceLastInspection = 0;\r\n    }\r\n\r\n    /*function getTotalUsedHoursById(uint deviceId) public returns (uint totalUsedHours) {\r\n        return devices[deviceId].totalUsedHours; \r\n    }*/\r\n\r\n    function deactivateDeviceById(uint deviceId) public {\r\n        devices[deviceId].active = false;\r\n    }\r\n\r\n}\r\n",
  "sourcePath": "C:\\Users\\nwieb\\Documents\\GitHub\\BAHackVision48\\contracts\\MaintenanceContract.sol",
  "compiler": {
    "name": "solc",
    "version": "0.4.18+commit.9cf6e910.Emscripten.clang"
  },
  "schemaVersion": "1.0.1",
  "updatedAt": "2017-11-25T19:58:55.394Z"
}